{
  "contractName": "Lottery",
  "abi": [
    {
      "inputs": [],
      "stateMutability": "nonpayable",
      "type": "constructor"
    },
    {
      "inputs": [],
      "name": "manager",
      "outputs": [
        {
          "internalType": "address",
          "name": "",
          "type": "address"
        }
      ],
      "stateMutability": "view",
      "type": "function",
      "constant": true
    },
    {
      "inputs": [
        {
          "internalType": "uint256",
          "name": "",
          "type": "uint256"
        }
      ],
      "name": "players",
      "outputs": [
        {
          "internalType": "address payable",
          "name": "",
          "type": "address"
        }
      ],
      "stateMutability": "view",
      "type": "function",
      "constant": true
    },
    {
      "stateMutability": "payable",
      "type": "receive",
      "payable": true
    },
    {
      "inputs": [],
      "name": "getBalance",
      "outputs": [
        {
          "internalType": "uint256",
          "name": "",
          "type": "uint256"
        }
      ],
      "stateMutability": "view",
      "type": "function",
      "constant": true
    },
    {
      "inputs": [],
      "name": "pickWinner",
      "outputs": [],
      "stateMutability": "nonpayable",
      "type": "function"
    }
  ],
  "bytecode": "0x608060405234801561001057600080fd5b5033600160006101000a81548173ffffffffffffffffffffffffffffffffffffffff021916908373ffffffffffffffffffffffffffffffffffffffff160217905550610716806100616000396000f3fe6080604052600436106100435760003560e01c806312065fe0146100c5578063481c6a75146100f05780635d495aea1461011b578063f71d96cb14610132576100c0565b366100c05767016345785d8a0000341461005c57600080fd5b6000339080600181540180825580915050600190039060005260206000200160009091909190916101000a81548173ffffffffffffffffffffffffffffffffffffffff021916908373ffffffffffffffffffffffffffffffffffffffff1602179055005b600080fd5b3480156100d157600080fd5b506100da61016f565b6040516100e791906104b3565b60405180910390f35b3480156100fc57600080fd5b506101056101d1565b604051610112919061050f565b60405180910390f35b34801561012757600080fd5b506101306101f7565b005b34801561013e57600080fd5b506101596004803603810190610154919061055b565b61037a565b60405161016691906105a9565b60405180910390f35b6000600160009054906101000a900473ffffffffffffffffffffffffffffffffffffffff1673ffffffffffffffffffffffffffffffffffffffff163373ffffffffffffffffffffffffffffffffffffffff16146101cb57600080fd5b47905090565b600160009054906101000a900473ffffffffffffffffffffffffffffffffffffffff1681565b600160009054906101000a900473ffffffffffffffffffffffffffffffffffffffff1673ffffffffffffffffffffffffffffffffffffffff163373ffffffffffffffffffffffffffffffffffffffff161461025157600080fd5b6005600080549050101561026457600080fd5b600061026e6103b9565b90506000806000805490508361028491906105f3565b90506000818154811061029a57610299610624565b5b9060005260206000200160009054906101000a900473ffffffffffffffffffffffffffffffffffffffff1691508173ffffffffffffffffffffffffffffffffffffffff166108fc6102e961016f565b9081150290604051600060405180830381858888f19350505050158015610314573d6000803e3d6000fd5b50600067ffffffffffffffff8111156103305761032f610653565b5b60405190808252806020026020018201604052801561035e5781602001602082028036833780820191505090505b50600090805190602001906103749291906103f3565b50505050565b6000818154811061038a57600080fd5b906000526020600020016000915054906101000a900473ffffffffffffffffffffffffffffffffffffffff1681565b600044426000805490506040516020016103d5939291906106a3565b6040516020818303038152906040528051906020012060001c905090565b82805482825590600052602060002090810192821561046c579160200282015b8281111561046b5782518260006101000a81548173ffffffffffffffffffffffffffffffffffffffff021916908373ffffffffffffffffffffffffffffffffffffffff16021790555091602001919060010190610413565b5b509050610479919061047d565b5090565b5b8082111561049657600081600090555060010161047e565b5090565b6000819050919050565b6104ad8161049a565b82525050565b60006020820190506104c860008301846104a4565b92915050565b600073ffffffffffffffffffffffffffffffffffffffff82169050919050565b60006104f9826104ce565b9050919050565b610509816104ee565b82525050565b60006020820190506105246000830184610500565b92915050565b600080fd5b6105388161049a565b811461054357600080fd5b50565b6000813590506105558161052f565b92915050565b6000602082840312156105715761057061052a565b5b600061057f84828501610546565b91505092915050565b6000610593826104ce565b9050919050565b6105a381610588565b82525050565b60006020820190506105be600083018461059a565b92915050565b7f4e487b7100000000000000000000000000000000000000000000000000000000600052601260045260246000fd5b60006105fe8261049a565b91506106098361049a565b925082610619576106186105c4565b5b828206905092915050565b7f4e487b7100000000000000000000000000000000000000000000000000000000600052603260045260246000fd5b7f4e487b7100000000000000000000000000000000000000000000000000000000600052604160045260246000fd5b6000819050919050565b61069d6106988261049a565b610682565b82525050565b60006106af828661068c565b6020820191506106bf828561068c565b6020820191506106cf828461068c565b60208201915081905094935050505056fea26469706673582212209c194f3c0ca09977ea1bd745e76e3ca036e51ce29956355b512d9a589da2ca3264736f6c634300080d0033",
  "immutableReferences": {},
  "source": "//SPDX-License-Identifier: GPL-3.0\r\n\r\npragma solidity >=0.5.0 <0.9.0;\r\n\r\ncontract Lottery{\r\n\r\n    address payable[] public players;\r\n    address public manager;\r\n\r\n\r\n\r\n    constructor(){\r\n        manager = msg.sender;\r\n    }\r\n\r\n    receive () payable external{\r\n        require(msg.value == 0.1 ether);\r\n        players.push(payable(msg.sender));\r\n    }\r\n\r\n    function getBalance() public view returns(uint){\r\n        require(msg.sender == manager);\r\n        return address(this).balance;\r\n    }\r\n\r\n    function random() internal view returns(uint){\r\n       return uint(keccak256(abi.encodePacked(block.difficulty, block.timestamp, players.length)));\r\n    }\r\n\r\n\r\n    function pickWinner() public{\r\n\r\n        require(msg.sender == manager);\r\n        require (players.length >= 5);\r\n\r\n        uint r = random();\r\n        address payable winner;\r\n\r\n\r\n        uint index = r % players.length;\r\n\r\n        winner = players[index];\r\n\r\n        winner.transfer(getBalance());\r\n\r\n\r\n        players = new address payable[](0);\r\n    }\r\n\r\n}\r\n",
  "sourcePath": "C:\\Users\\DELL\\OneDrive\\Desktop\\SmartContract\\contracts\\Lottery.sol",
  "compiler": {
    "name": "solc",
    "version": "0.8.13+commit.abaa5c0e.Emscripten.clang"
  },
  "schemaVersion": "3.4.7",
  "updatedAt": "2022-05-07T17:37:58.492Z",
  "networkType": "ethereum",
  "devdoc": {
    "kind": "dev",
    "methods": {},
    "version": 1
  },
  "userdoc": {
    "kind": "user",
    "methods": {},
    "version": 1
  }
}